:100000000C942A000C9447000C9447000C94470071
:100010000C9447000C9447000C9447000C94470044
:100020000C9447000C9447000C9447000C94D81291
:100030000C9447000C9447000C9447000C94470024
:100040000C9447000C9447000C9447000C94470014
:100050000C94470011241FBECFE5D4E0DEBFCDBF16
:1000600011E0A0E6B0E0E8E6FCE202C005900D92E7
:10007000A438B107D9F711E0A4E8B1E001C01D929E
:10008000AA39B107E1F70E94BF0F0C9432160C9405
:100090000000EF92FF920F931F937B018C0120E0F1
:1000A00030E040E05FE40E94F50388238CF0C80153
:1000B000B70120E030E040E05FE40E94C1010E940F
:1000C00055049B01AC01205030404040504806C0D0
:1000D000C801B7010E9455049B01AC01B901CA01D6
:1000E0001F910F91FF90EF900895A0E0B0E0EBE733
:1000F000F0E00C941513DC012B01FA019C91923075
:1001000008F439C1EB018881823008F433C194309E
:1001100069F4843009F02FC111969C91119789815F
:10012000981709F428C1ABE7B0E025C1843009F481
:1001300021C18230A9F4923009F01DC19A01AD01AC
:1001400088E0EA010990AE01E90109929E0181501F
:10015000C1F7E201898111969C918923818308C1AD
:10016000923009F407C112962D903C901397EB0141
:100170008A819B811496AD90BD90CD90DC901797AD
:10018000EC80FD800E811F819101281B390BB90184
:1001900037FF04C066277727621B730B6032710537
:1001A0000CF061C0121613066CF537014801062EDB
:1001B00004C096948794779467940A94D2F721E0C8
:1001C00030E040E050E004C0220F331F441F551FB1
:1001D0006A95D2F721503040404050402E213F21B7
:1001E00040235123211531054105510521F021E01E
:1001F00030E040E050E079018A01E628F72808293C
:1002000019293CC0232BD1F1260E371E350146019A
:10021000062E04C096948794779467940A94D2F734
:1002200021E030E040E050E004C0220F331F441FC3
:10023000551F6A95D2F721503040404050402A2146
:100240003B214C215D21211531054105510521F04E
:1002500021E030E040E050E059016A01A628B728CB
:10026000C828D9280BC0821593052CF01C01AA249C
:10027000BB24650103C0EE24FF24870111969C91E5
:10028000D20111968C91981709F445C0992339F041
:10029000A80197012A193B094C095D0906C0A6016E
:1002A00095012E193F09400B510B57FD08C01182D3
:1002B0003382228224833583468357831DC081E0A5
:1002C00081833382228288279927DC01821B930B4A
:1002D000A40BB50B84839583A683B7830DC0220F2F
:1002E000331F441F551F24833583468357838281E0
:1002F000938101979383828324813581468157813D
:10030000DA01C9010197A109B1098F5F9F4FAF4F72
:10031000BF4328F30BC0918333822282EA0CFB1C7B
:100320000C1D1D1DE482F5820683178383E0808304
:10033000248135814681578157FF1AC0C901AA27F8
:1003400097FDA095BA2F81709070A070B0705695EF
:10035000479537952795822B932BA42BB52B848318
:100360009583A683B7838281938101969383828349
:10037000DF0101C0D201CD01CDB7DEB7E2E10C94BF
:100380003113A0E2B0E0E7ECF1E00C9421136983B3
:100390007A838B839C832D833E834F835887E9E048
:1003A000EE2EF12CEC0EFD1ECE010196B7010E943F
:1003B00046068E010F5E1F4FCE010596B8010E94C2
:1003C00046068A8991E089278A8BC701B801AE0168
:1003D000475E5F4F0E9475000E947105A096E6E09F
:1003E0000C943D13A0E2B0E0E8EFF1E00C9421138F
:1003F00069837A838B839C832D833E834F835887C5
:10040000F9E0EF2EF12CEC0EFD1ECE010196B701A6
:100410000E9446068E010F5E1F4FCE010596B80161
:100420000E944606C701B801AE01475E5F4F0E94B9
:1004300075000E947105A096E6E00C943D13A0E2C1
:10044000B0E0E5E2F2E00C94151369837A838B83C4
:100450009C832D833E834F835887CE010196BE0136
:10046000675F7F4F0E944606CE010596BE016F5E14
:100470007F4F0E9446069985923088F089898230A4
:10048000C8F0943019F4823051F404C0843029F457
:10049000923081F48BE790E0C6C0923049F420E0BE
:1004A0009A858A89981321E02A87CE010996BBC0D4
:1004B000823049F420E09A858A89981321E02A8BBA
:1004C000CE014196B0C02D843E844F8458886D88FB
:1004D0007E888F88988CEE24FF248701AA24BB2471
:1004E000650140E050E060E070E0E0E0F0E0C10174
:1004F00081709070892BE9F0E60CF71C081D191D1E
:100500009A01AB012A0D3B1D4C1D5D1D80E090E062
:10051000A0E0B0E0E614F7040805190520F481E036
:1005200090E0A0E0B0E0BA01A901480F591F6A1F8E
:100530007B1FAA0CBB1CCC1CDD1C97FE08C081E0F5
:1005400090E0A0E0B0E0A82AB92ACA2ADB2A3196B6
:10055000E032F10549F0660C771C881C991C569412
:10056000479437942794C3CFFA85EA892B893C892D
:100570008B859C85280F391F2E5F3F4F17C0CA01FE
:1005800081709070892B61F016950795F794E79428
:1005900080E090E0A0E0B0E8E82AF92A0A2B1B2BC3
:1005A00076956795579547952F5F3F4F77FDE7CF36
:1005B0000CC0440F551F661F771F17FD4160EE0CDE
:1005C000FF1C001F111F21503040403090E05907A0
:1005D00090E0690790E4790760F32B8F3C8FDB0193
:1005E000CA018F779070A070B07080349105A1051A
:1005F000B10561F447FD0AC0E114F10401051105DC
:1006000029F0405C5F4F6F4F7F4F40781A8EFE1786
:1006100011F081E08A8F4D8F5E8F6F8F78A383E01A
:10062000898FCE0149960E947105A096E2E10C9453
:100630003113A8E1B0E0EFE1F3E00C941D136983FE
:100640007A838B839C832D833E834F835887B9E0C5
:10065000EB2EF12CEC0EFD1ECE010196B7010E948F
:1006600046068E010F5E1F4FCE010596B8010E940F
:1006700046062985223008F47EC03989323010F4CC
:10068000B8017CC08A859A8989278A87243011F02D
:10069000223031F4231709F06EC06BE770E06EC0B2
:1006A000343039F41D861E861F86188A1C861B86E8
:1006B00004C0323021F484E08987B7015FC02B8504
:1006C0003C858B899C89281B390B3C872B87ED84C3
:1006D000FE840F851889AD88BE88CF88D88CEA142F
:1006E000FB040C051D0540F4EE0CFF1C001F111F40
:1006F000215030403C872B8720E030E040E050E044
:1007000080E090E0A0E0B0E460E070E0EA14FB0478
:100710000C051D0540F0282B392B4A2B5B2BEA18C2
:10072000FB080C091D09B695A79597958795EE0CC2
:10073000FF1C001F111F6F5F7F4F6F31710531F775
:10074000DA01C9018F779070A070B0708034910584
:10075000A105B10561F427FD0AC0E114F10401050A
:10076000110529F0205C3F4F4F4F5F4F20782D87B8
:100770003E874F87588BBE01675F7F4FCB010E943A
:1007800071056896EAE00C943913A8E1B0E0EBEC4F
:10079000F3E00C94211369837A838B839C832D83EC
:1007A0003E834F83588789E0E82EF12CEC0EFD1E26
:1007B000CE010196B7010E9446068E010F5E1F4FC3
:1007C000CE010596B8010E9446068985823040F028
:1007D0008989823028F0C701B8010E94BE0601C095
:1007E0008FEF6896E6E00C943D13A8E1B0E0EBEFE4
:1007F000F3E00C94211369837A838B839C832D838C
:100800003E834F83588789E0E82EF12CEC0EFD1EC5
:10081000CE010196B7010E9446068E010F5E1F4F62
:10082000CE010596B8010E9446068985823040F0C7
:100830008989823028F0C701B8010E94BE0601C034
:100840008FEF6896E6E00C943D13A8E1B0E0EBE290
:10085000F4E00C94211369837A838B839C832D832A
:100860003E834F83588789E0E82EF12CEC0EFD1E65
:10087000CE010196B7010E9446068E010F5E1F4F02
:10088000CE010596B8010E9446068985823040F067
:100890008989823028F0C701B8010E94BE0601C0D4
:1008A00081E06896E6E00C943D13ACE0B0E0EBE547
:1008B000F4E00C94251369837A838B839C83CE01A7
:1008C0000196BE016B5F7F4F0E9446068D8182308C
:1008D00061F1823050F1843021F48E81882351F10E
:1008E0002EC02F81388537FD20C06E812F31310514
:1008F0001CF06623F9F023C08EE190E0821B930B7D
:1009000029853A854B855C8504C056954795379572
:1009100027958A95D2F76623B1F05095409530958A
:1009200021953F4F4F4F5F4F0EC020E030E040E039
:1009300050E009C02FEF3FEF4FEF5FE704C020E02A
:1009400030E040E050E8B901CA012C96E2E00C9496
:100950004113A8E0B0E0EFEAF4E00C941D137B0132
:100960008C01611571058105910519F482E0898377
:1009700060C083E089838EE1C82ED12CDC82CB82DB
:10098000ED82FE820F831887C801B7010E942205FD
:10099000FC013197F7FF3BC0222733272E1B3F0B6B
:1009A00057016801022E04C0D694C794B794A79447
:1009B0000A94D2F740E050E060E070E081E090E01F
:1009C000A0E0B0E004C0880F991FAA1FBB1F2A95A2
:1009D000D2F70197A109B1098E219F21A023B1234C
:1009E0000097A105B10521F041E050E060E070E022
:1009F0004A295B296C297D294D835E836F83788723
:100A00008EE190E08E1B9F0B9C838B8312C03097EE
:100A100081F00E2E04C0EE0CFF1C001F111F0A9463
:100A2000D2F7ED82FE820F831887CE1ADF0ADC82AE
:100A3000CB821A82CE0101960E9471052896EAE0C7
:100A40000C943913EF92FF920F931F937B018C014B
:100A500080E0E81680E0F80681E0080780E01807EB
:100A600088F48FEFE816F1040105110531F028F044
:100A700088E090E0A0E0B0E017C080E090E0A0E067
:100A8000B0E012C080E0E81680E0F80680E00807D9
:100A900081E0180728F088E190E0A0E0B0E004C011
:100AA00080E190E0A0E0B0E020E230E040E050E003
:100AB000281B390B4A0B5B0B04C016950795F7945E
:100AC000E7948A95D2F7F701ED57FF4F8081281BF5
:100AD000310941095109C9011F910F91FF90EF9010
:100AE0000895DF92EF92FF920F931F93FC01E48031
:100AF000F58006811781D1808081823048F480E0C2
:100B000090E0A0E1B0E0E82AF92A0A2B1B2BA5C04F
:100B1000843009F49FC0823021F4EE24FF24870141
:100B200005C0E114F1040105110519F4E0E0F0E05D
:100B300096C0628173819FEF623879070CF05BC0C9
:100B400022E83FEF261B370B2A3131052CF020E03D
:100B500030E040E050E02AC0B801A701022E04C0F6
:100B600076956795579547950A94D2F781E090E07E
:100B7000A0E0B0E004C0880F991FAA1FBB1F2A95F0
:100B8000D2F70197A109B1098E219F21A023B1239A
:100B90000097A105B10521F081E090E0A0E0B0E070
:100BA0009A01AB01282B392B4A2B5B2BDA01C901A7
:100BB0008F779070A070B07080349105A105B10559
:100BC00039F427FF09C0205C3F4F4F4F5F4F04C0EF
:100BD000215C3F4F4F4F5F4FE0E0F0E02030A0E05E
:100BE0003A07A0E04A07A0E45A0710F0E1E0F0E07D
:100BF00079018A0127C06038710564F5FB01E1586D
:100C0000FF4FD801C7018F779070A070B07080340B
:100C10009105A105B10539F4E7FE0DC080E490E02F
:100C2000A0E0B0E004C08FE390E0A0E0B0E0E80E08
:100C3000F91E0A1F1B1F17FF05C016950795F7948D
:100C4000E794319687E016950795F794E7948A958F
:100C5000D1F705C0EE24FF248701EFEFF0E06E2FFF
:100C6000679566276795902F9F77D794DD24D79453
:100C70008E2F8695492F462B582F5D29B701CA0123
:100C80001F910F91FF90EF90DF900895FC01DB0121
:100C9000408151812281622F6F7770E0221F2227CD
:100CA000221F9381892F880F822B282F30E0991FD4
:100CB0009927991F11969C93119721153105A9F534
:100CC000411551056105710511F482E037C082E8D4
:100CD0009FEF13969C938E9312979A01AB0167E056
:100CE000220F331F441F551F6A95D1F783E08C9361
:100CF0000DC0220F331F441F551F12968D919C91DA
:100D00001397019713969C938E931297203080E04F
:100D1000380780E0480780E4580758F314962D936D
:100D20003D934D935C93179708952F3F310579F4C8
:100D3000411551056105710519F484E08C930895FE
:100D400064FF03C081E08C9312C01C9210C02F5727
:100D5000304013963C932E93129783E08C9387E058
:100D6000440F551F661F771F8A95D1F7706414963C
:100D70004D935D936D937C93179708951F93DC01BA
:100D8000FB019C91923008F447C08081823008F4C6
:100D900043C0943051F411961C91843099F58181AF
:100DA000682F70E0611B71093FC0843021F09230E0
:100DB00031F48230B9F18181882389F12DC01196F7
:100DC0001C9111978230F1F081811817D9F4129695
:100DD0002D913C911397828193818217930794F010
:100DE00028173907BCF014968D919D910D90BC91F8
:100DF000A02D2481358146815781281739074A075C
:100E00005B0718F4112341F00AC082179307A40767
:100E1000B50740F4112319F061E070E005C06FEFF1
:100E20007FEF02C060E070E0CB011F9108950F9347
:100E30001F93DF93CF9300D000D0CDB7DEB7698387
:100E40007A838B839C83EAE2F0E088ED8083E0E4A0
:100E5000F0E086E8808309E210E089819A81AB8125
:100E6000BC81880F991FAA1FBB1F880F991FAA1F3B
:100E7000BB1F880F991FAA1FBB1F880F991FAA1F8E
:100E8000BB1F9C01AD0180E492E4AFE0B0E0BC0187
:100E9000CD010E94F312DA01C9018150F80180836B
:100EA0000F900F900F900F90CF91DF911F910F91A6
:100EB0000895DF93CF93CDB7DEB7EBE2F0E080810A
:100EC0008823DCF7ECE2F0E08081CF91DF91089598
:100ED000DF93CF93CDB7DEB7A3E5B0E0E3E5F0E075
:100EE000808188668C93A3E5B0E0E3E5F0E0808143
:100EF00081608C93A7E3B0E0E7E3F0E08081886055
:100F00008C93CF91DF910895DF93CF930F92CDB75C
:100F1000DEB78983ECE5F0E0898180830F90CF9183
:100F2000DF910895DF93CF93CDB7DEB72E970FB63D
:100F3000F894DEBF0FBECDBFAAE3B0E0EAE3F0E075
:100F4000808182608C93AAE3B0E0EAE3F0E08081E4
:100F500084608C93AAE3B0E0EAE3F0E080818867E4
:100F60008C9382E00E94380888E20E94380880E072
:100F700090E0A0E8BFE38B879C87AD87BE876B8539
:100F80007C858D859E8520E030E04AE753E40E9411
:100F90001F02DC01CB018F839887A987BA876F81F5
:100FA000788589859A8520E030E040E85FE30E94FB
:100FB000250488232CF481E090E09E838D833FC03C
:100FC0006F81788589859A8520E03FEF4FE757E468
:100FD0000E94C50318164CF56B857C858D859E8512
:100FE00020E030E040E251E40E941F02DC01CB012E
:100FF000BC01CD010E944900DC01CB019E838D83A1
:101000000FC089E190E09C838B838B819C81019749
:10101000F1F79C838B838D819E8101979E838D83C5
:101020008D819E81009769F714C06F8178858985CD
:101030009A850E944900DC01CB019E838D838D81BE
:101040009E819A83898389819A810197F1F79A8396
:10105000898381E00E9438088CE00E9438082E962F
:101060000FB6F894DEBF0FBECDBFCF91DF910895CC
:101070000F931F93DF93CF93CDB7DEB7C754D04004
:101080000FB6F894DEBF0FBECDBFFE01E95BFF4F88
:101090008083ABE3B0E0EBE3F0E080818D7F8C9365
:1010A000FE01ED5BFF4F80E090E0A0E8BFE38083AE
:1010B0009183A283B3838E01015C1F4FFE01ED5B20
:1010C000FF4F608171818281938120E030E04AE7A7
:1010D00053E40E941F02DC01CB01F801808391835D
:1010E000A283B383FE01FF96608171818281938127
:1010F00020E030E040E85FE30E94250488232CF4E0
:1011000081E090E09EAF8DAF46C0FE01FF9660810A
:1011100071818281938120E03FEF4FE757E40E9485
:10112000C503181664F5FE01ED5BFF4F6081718108
:101130008281938120E030E040E251E40E941F026E
:10114000DC01CB01BC01CD010E944900DC01CB01D7
:101150009EAF8DAF0FC089E190E09CAF8BAF8BADA0
:101160009CAD0197F1F79CAF8BAF8DAD9EAD019714
:101170009EAF8DAF8DAD9EAD009769F716C0FE0195
:10118000FF9660817181828193810E944900DC0118
:10119000CB019EAF8DAF8DAD9EAD9AAF89AF89ADBE
:1011A0009AAD0197F1F79AAF89AFABE3B0E0EBE30B
:1011B000F0E0808184608C9380E090E0A0E8BFE361
:1011C0008DAB9EABAFABB8AF6DA97EA98FA998AD23
:1011D00020E030E04AE753E40E941F02DC01CB012B
:1011E00089AB9AABABABBCAB69A97AA98BA99CA91B
:1011F00020E030E040E85FE30E94250488232CF4DF
:1012000081E090E098AB8FA73FC069A97AA98BA92C
:101210009CA920E03FEF4FE757E40E94C503181652
:101220004CF56DA97EA98FA998AD20E030E040E291
:1012300051E40E941F02DC01CB01BC01CD010E94E0
:101240004900DC01CB0198AB8FA70FC089E190E08A
:101250009EA78DA78DA59EA50197F1F79EA78DA7A7
:101260008FA598A9019798AB8FA78FA598A90097EC
:1012700069F714C069A97AA98BA99CA90E944900A1
:10128000DC01CB0198AB8FA78FA598A99CA78BA752
:101290008BA59CA50197F1F79CA78BA7ABE3B0E0CA
:1012A000EBE3F0E0808187788C93ABE3B0E0EBE395
:1012B000F0E08081282FFE01E95BFF4F808182955D
:1012C0008F70882F90E0880F991F880F991F880FC3
:1012D000991F822B8C93ABE3B0E0EBE3F0E08081CD
:1012E0008B7F8C9380E090E0A0E8BFE38FA398A76A
:1012F000A9A7BAA76FA178A589A59AA520E030E093
:101300004AE753E40E941F02DC01CB018BA39CA39C
:10131000ADA3BEA36BA17CA18DA19EA120E030E076
:1013200040E85FE30E94250488232CF481E090E0EC
:101330009AA389A33FC06BA17CA18DA19EA120E0AF
:101340003FEF4FE757E40E94C50318164CF56FA115
:1013500078A589A59AA520E030E040E251E40E94FA
:101360001F02DC01CB01BC01CD010E944900DC0160
:10137000CB019AA389A30FC089E190E098A38F8F36
:101380008F8D98A10197F1F798A38F8F89A19AA1CA
:1013900001979AA389A389A19AA1009769F714C01C
:1013A0006BA17CA18DA19EA10E944900DC01CB0113
:1013B0009AA389A389A19AA19E8F8D8F8D8D9E8DD1
:1013C0000197F1F79E8F8D8FABE3B0E0EBE3F0E098
:1013D00080818D7F8C93ABE3B0E0EBE3F0E0808124
:1013E00084608C9380E090E0A0E8BFE3898F9A8FBF
:1013F000AB8FBC8F698D7A8D8B8D9C8D20E030E01A
:101400004AE753E40E941F02DC01CB018D8B9E8BC7
:10141000AF8BB88F6D897E898F89988D20E030E001
:1014200040E85FE30E94250488232CF481E090E0EB
:101430009C8B8B8B3FC06D897E898F89988D20E036
:101440003FEF4FE757E40E94C50318164CF5698D2E
:101450007A8D8B8D9C8D20E030E040E251E40E943B
:101460001F02DC01CB01BC01CD010E944900DC015F
:10147000CB019C8B8B8B0FC089E190E09A8B898B81
:1014800089899A890197F1F79A8B898B8B899C8935
:1014900001979C8B8B8B8B899C89009769F714C073
:1014A0006D897E898F89988D0E944900DC01CB016E
:1014B0009C8B8B8B8B899C89988B8F878F85988948
:1014C0000197F1F7988B8F87ABE3B0E0EBE3F0E0A7
:1014D000808187788C93ABE3B0E0EBE3F0E0808130
:1014E000282FFE01E95BFF4F8081882F90E08F70ED
:1014F0009070880F991F880F991F880F991F822B52
:101500008C93ABE3B0E0EBE3F0E080818B7F8C93D6
:1015100080E090E0A0E8BFE38B879C87AD87BE8723
:101520006B857C858D859E8520E030E04AE753E41D
:101530000E941F02DC01CB018F839887A987BA879D
:101540006F81788589859A8520E030E040E85FE307
:101550000E94250488232CF481E090E09E838D83F3
:101560003FC06F81788589859A8520E03FEF4FE7FE
:1015700057E40E94C50318164CF56B857C858D8554
:101580009E8520E030E040E251E40E941F02DC0131
:10159000CB01BC01CD010E944900DC01CB019E833F
:1015A0008D830FC089E190E09C838B838B819C812C
:1015B0000197F1F79C838B838D819E8101979E8398
:1015C0008D838D819E81009769F714C06F81788526
:1015D00089859A850E944900DC01CB019E838D8319
:1015E0008D819E819A83898389819A810197F1F700
:1015F0009A838983C95BDF4F0FB6F894DEBF0FBEB5
:10160000CDBFCF91DF911F910F910895DF93CF93BD
:10161000CDB7DEB781E00E943808CF91DF91089501
:101620000F931F93DF93CF93CDB7DEB7C754D0404E
:101630000FB6F894DEBF0FBECDBFFE01E95BFF4FD2
:101640008083ABE3B0E0EBE3F0E0808182608C93D9
:10165000FE01ED5BFF4F80E090E0A0E8BFE38083F8
:101660009183A283B3838E01015C1F4FFE01ED5B6A
:10167000FF4F608171818281938120E030E04AE7F1
:1016800053E40E941F02DC01CB01F80180839183A7
:10169000A283B383FE01FF96608171818281938171
:1016A00020E030E040E85FE30E94250488232CF42A
:1016B00081E090E09EAF8DAF46C0FE01FF96608155
:1016C00071818281938120E03FEF4FE757E40E94D0
:1016D000C503181664F5FE01ED5BFF4F6081718153
:1016E0008281938120E030E040E251E40E941F02B9
:1016F000DC01CB01BC01CD010E944900DC01CB0122
:101700009EAF8DAF0FC089E190E09CAF8BAF8BADEA
:101710009CAD0197F1F79CAF8BAF8DAD9EAD01975E
:101720009EAF8DAF8DAD9EAD009769F716C0FE01DF
:10173000FF9660817181828193810E944900DC0162
:10174000CB019EAF8DAF8DAD9EAD9AAF89AF89AD08
:101750009AAD0197F1F79AAF89AFABE3B0E0EBE355
:10176000F0E0808184608C9380E090E0A0E8BFE3AB
:101770008DAB9EABAFABB8AF6DA97EA98FA998AD6D
:1017800020E030E04AE753E40E941F02DC01CB0175
:1017900089AB9AABABABBCAB69A97AA98BA99CA965
:1017A00020E030E040E85FE30E94250488232CF429
:1017B00081E090E098AB8FA73FC069A97AA98BA977
:1017C0009CA920E03FEF4FE757E40E94C50318169D
:1017D0004CF56DA97EA98FA998AD20E030E040E2DC
:1017E00051E40E941F02DC01CB01BC01CD010E942B
:1017F0004900DC01CB0198AB8FA70FC089E190E0D5
:101800009EA78DA78DA59EA50197F1F79EA78DA7F1
:101810008FA598A9019798AB8FA78FA598A9009736
:1018200069F714C069A97AA98BA99CA90E944900EB
:10183000DC01CB0198AB8FA78FA598A99CA78BA79C
:101840008BA59CA50197F1F79CA78BA7ABE3B0E014
:10185000EBE3F0E0808187788C93ABE3B0E0EBE3DF
:10186000F0E08081282FFE01E95BFF4F80818295A7
:101870008F70882F90E0880F991F880F991F880F0D
:10188000991F822B8C93ABE3B0E0EBE3F0E0808117
:101890008B7F8C9380E090E0A0E8BFE38FA398A7B4
:1018A000A9A7BAA76FA178A589A59AA520E030E0DD
:1018B0004AE753E40E941F02DC01CB018BA39CA3E7
:1018C000ADA3BEA36BA17CA18DA19EA120E030E0C1
:1018D00040E85FE30E94250488232CF481E090E037
:1018E0009AA389A33FC06BA17CA18DA19EA120E0FA
:1018F0003FEF4FE757E40E94C50318164CF56FA160
:1019000078A589A59AA520E030E040E251E40E9444
:101910001F02DC01CB01BC01CD010E944900DC01AA
:10192000CB019AA389A30FC089E190E098A38F8F80
:101930008F8D98A10197F1F798A38F8F89A19AA114
:1019400001979AA389A389A19AA1009769F714C066
:101950006BA17CA18DA19EA10E944900DC01CB015D
:101960009AA389A389A19AA19E8F8D8F8D8D9E8D1B
:101970000197F1F79E8F8D8FABE3B0E0EBE3F0E0E2
:10198000808182608C93ABE3B0E0EBE3F0E0808198
:1019900084608C9380E090E0A0E8BFE3898F9A8F09
:1019A000AB8FBC8F698D7A8D8B8D9C8D20E030E064
:1019B0004AE753E40E941F02DC01CB018D8B9E8B12
:1019C000AF8BB88F6D897E898F89988D20E030E04C
:1019D00040E85FE30E94250488232CF481E090E036
:1019E0009C8B8B8B3FC06D897E898F89988D20E081
:1019F0003FEF4FE757E40E94C50318164CF5698D79
:101A00007A8D8B8D9C8D20E030E040E251E40E9485
:101A10001F02DC01CB01BC01CD010E944900DC01A9
:101A2000CB019C8B8B8B0FC089E190E09A8B898BCB
:101A300089899A890197F1F79A8B898B8B899C897F
:101A400001979C8B8B8B8B899C89009769F714C0BD
:101A50006D897E898F89988D0E944900DC01CB01B8
:101A60009C8B8B8B8B899C89988B8F878F85988992
:101A70000197F1F7988B8F87ABE3B0E0EBE3F0E0F1
:101A8000808187788C93ABE3B0E0EBE3F0E080817A
:101A9000282FFE01E95BFF4F8081882F90E08F7037
:101AA0009070880F991F880F991F880F991F822B9C
:101AB0008C93ABE3B0E0EBE3F0E080818B7F8C9321
:101AC00080E090E0A0E8BFE38B879C87AD87BE876E
:101AD0006B857C858D859E8520E030E04AE753E468
:101AE0000E941F02DC01CB018F839887A987BA87E8
:101AF0006F81788589859A8520E030E040E85FE352
:101B00000E94250488232CF481E090E09E838D833D
:101B10003FC06F81788589859A8520E03FEF4FE748
:101B200057E40E94C50318164CF56B857C858D859E
:101B30009E8520E030E040E251E40E941F02DC017B
:101B4000CB01BC01CD010E944900DC01CB019E8389
:101B50008D830FC089E190E09C838B838B819C8176
:101B60000197F1F79C838B838D819E8101979E83E2
:101B70008D838D819E81009769F714C06F81788570
:101B800089859A850E944900DC01CB019E838D8363
:101B90008D819E819A83898389819A810197F1F74A
:101BA0009A838983C95BDF4F0FB6F894DEBF0FBEFF
:101BB000CDBFCF91DF911F910F910895DF93CF9308
:101BC00000D000D0CDB7DEB79C838B831A821982F8
:101BD0000FC029813A818B819C81FC01E20FF31FA8
:101BE00080810E94100B89819A8101969A83898352
:101BF00029813A818B819C81FC01E20FF31F808156
:101C0000882339F70F900F900F900F90CF91DF91AD
:101C10000895DF93CF9300D000D00F92CDB7DEB7F9
:101C20008A836B8319828A81282F30E03D832C833D
:101C30008C819D8181309105C1F02C813D812230C4
:101C400031052CF48C819D81009761F019C02C81A5
:101C50003D812230310569F08C819D818330910571
:101C600061F00EC08B8189830BC08B81805C89837E
:101C700007C08B81805F898303C08B81805B8983F0
:101C8000898180680E9438080F900F900F900F9004
:101C90000F90CF91DF910895DF93CF9300D000D0C4
:101CA000CDB7DEB789836A835C834B8389816A8180
:101CB0000E94090E8B819C810E94DE0D0F900F9077
:101CC0000F900F90CF91DF910895DF93CF9300D0C5
:101CD00000D0CDB7DEB79A8389837C836B838981FB
:101CE0009A812B813C81B9014AE050E00E944C135B
:101CF0000F900F900F900F90CF91DF910895DF9389
:101D0000CF9300D000D0CDB7DEB78A837C836B83BE
:101D100019828A818830F8F48A81882F90E00896A9
:101D2000880F991F880F991F880F991F0E943808E4
:101D300019820EC08981282F30E08B819C81FC01A3
:101D4000E20FF31F80810E94100B89818F5F8983CE
:101D50008981883078F30F900F900F900F90CF917A
:101D6000DF910895DF93CF93CDB7DEB7A7E2B0E060
:101D7000E7E2F0E0808180648C93A7E2B0E0E7E2E4
:101D8000F0E080818F778C93A6E2B0E0E6E2F0E0AD
:101D9000808184608C93A6E2B0E0E6E2F0E080818E
:101DA00082608C93A6E2B0E0E6E2F0E080818160A0
:101DB0008C93A6E2B0E0E6E2F0E0808188608C934C
:101DC000A6E2B0E0E6E2F0E0808180688C93CF91FB
:101DD000DF910895DF93CF930F92CDB7DEB789835C
:101DE000A7E2B0E0E7E2F0E08081807E8C93A7E29A
:101DF000B0E0E7E2F0E090818981892B8C93A6E244
:101E0000B0E0E6E2F0E0808180648C93E6E2F0E00E
:101E10008081882F90E0807490700097B9F7E4E299
:101E2000F0E0808191810F90CF91DF910895DF9351
:101E3000CF930F92CDB7DEB78983EBE2F0E08081DC
:101E4000882F90E0807290700097B9F3ECE2F0E098
:101E5000898180830F90CF91DF910895DF93CF9395
:101E6000CDB7DEB7EBE2F0E080818823DCF7ECE26F
:101E7000F0E08081CF91DF910895DF93CF93CDB7CC
:101E8000DEB7A7E2B0E0E7E2F0E0808180648C9307
:101E9000A7E2B0E0E7E2F0E080818F778C93A6E2E2
:101EA000B0E0E6E2F0E0808184608C93A6E2B0E0EE
:101EB000E6E2F0E0808182608C93A6E2B0E0E6E2A8
:101EC000F0E0808181608C93A6E2B0E0E6E2F0E091
:101ED000808180688C93CF91DF910895DF93CF93B9
:101EE0000F92CDB7DEB78983A7E2B0E0E7E2F0E07A
:101EF0008081807E8C93A7E2B0E0E7E2F0E0908101
:101F00008981892B8C93A6E2B0E0E6E2F0E0808143
:101F100080648C93E6E2F0E08081882F90E080740A
:101F200090700097B9F7E4E2F0E0808191810F9022
:101F3000CF91DF910895DF93CF9300D000D0CDB73C
:101F4000DEB769837A838B839C8369817A818B81F5
:101F50009C8120E030E040E952E40E94250488237F
:101F600024F48FEF0E94840703C080E40E9484075A
:101F70000F900F900F900F90CF91DF910895DF9306
:101F8000CF93CDB7DEB7C254D0400FB6F894DEBFC2
:101F90000FBECDBFE4E3F0E08FEF8083E5E3F0E038
:101FA0001082AAE3B0E0EAE3F0E080818E778C93C0
:101FB0000E949207EAE2F0E080E98083E0E4F0E04A
:101FC00086E88083E0E4F0E01082E9E2F0E087E672
:101FD000808380E690E00E94DE0DFE01FF9680E0A7
:101FE00090E0A8ECB2E480839183A283B383FE01E6
:101FF000FF96608171818281938120E030E04AE721
:1020000053E40E941F02DC01CB018BAF9CAFADAF4C
:10201000BEAF6BAD7CAD8DAD9EAD20E030E040E855
:102020005FE30E94250488232CF481E090E09AAFBE
:1020300089AF41C06BAD7CAD8DAD9EAD20E03FEF73
:102040004FE757E40E94C50318165CF5FE01FF96A2
:10205000608171818281938120E030E040E251E42F
:102060000E941F02DC01CB01BC01CD010E9449008E
:10207000DC01CB019AAF89AF0FC089E190E098AF46
:102080008FAB8FA998AD0197F1F798AF8FAB89AD62
:102090009AAD01979AAF89AF89AD9AAD009769F76C
:1020A00014C06BAD7CAD8DAD9EAD0E944900DC01CE
:1020B000CB019AAF89AF89AD9AAD9EAB8DAB8DA99F
:1020C0009EA90197F1F79EAB8DAB0E946807AAE32A
:1020D000B0E0EAE3F0E080818E778C930E943D0FC0
:1020E00080E00E946E0F90939801809397018091F9
:1020F00097019091980121E0843F920708F087C0F2
:10210000A5E3B0E0E5E3F0E0808182608C930E947B
:10211000920787E690E00E94DE0D80E090E0A8EC58
:10212000B2E489AB9AABABABBCAB69A97AA98BA97A
:102130009CA920E030E04AE753E40E941F02DC0142
:10214000CB018DA79EA7AFA7B8AB6DA57EA58FA528
:1021500098A920E030E040E85FE30E94250488234E
:102160002CF481E090E09CA78BA73FC06DA57EA5D5
:102170008FA598A920E03FEF4FE757E40E94C503E1
:1021800018164CF569A97AA98BA99CA920E030E022
:1021900040E251E40E941F02DC01CB01BC01CD01F1
:1021A0000E944900DC01CB019CA78BA70FC089E1ED
:1021B00090E09AA789A789A59AA50197F1F79AA710
:1021C00089A78BA59CA501979CA78BA78BA59CA5F0
:1021D000009769F714C06DA57EA58FA598A90E94E8
:1021E0004900DC01CB019CA78BA78BA59CA598A7D8
:1021F0008FA38FA198A50197F1F798A78FA3A5E3C7
:10220000B0E0E5E3F0E080818D7F8C9307C0A5E32B
:10221000B0E0E5E3F0E080818D7F8C93AAE3B0E04D
:10222000EAE3F0E080818E778C930E943D0F87E097
:102230000E946E0FCC01A0E0B0E0BC01CD010E9475
:10224000A904DC01CB018093860190938701A093C0
:102250008801B09389018091860190918701A091B6
:102260008801B0918901BC01CD0120E030E040EA55
:1022700050E40E941F02DC01CB01BC01CD0120E033
:1022800030EC4FE754E40E941903DC01CB01BC01A0
:10229000CD0120E030E048EC52E40E941F02DC0156
:1022A000CB01BC01CD010E944900DC01CB01909320
:1022B0008B0180938A0120918A0130918B0100D09B
:1022C00000D000D0EDB7FEB731968DE891E0918354
:1022D000808382E790E093838283358324830E9406
:1022E0006D138DB79EB706960FB6F8949EBF0FBEBE
:1022F0008DBF8091860190918701A0918801B09156
:102300008901BC01CD010E949B0F0E94920780E0D1
:1023100090E0A0EAB0E48BA39CA3ADA3BEA36BA105
:102320007CA18DA19EA12BEA3AEA4AEA5EE30E94D3
:102330001F02DC01CB018F8F98A3A9A3BAA36F8DD5
:1023400078A189A19AA120E030E040E85FE30E94F3
:10235000250488231CF481E08E8F91C06F8D78A1B5
:1023600089A19AA120E030E04FE753E40E94C50321
:1023700018160CF07BC06BA17CA18DA19EA120E062
:1023800030E04AE754E40E941903DC01CB018A8F54
:102390009B8FAC8FBD8F6A8D7B8D8C8D9D8D20E04A
:1023A00030E04AE753E40E941F02DC01CB018E8B30
:1023B0009F8BA88FB98F6E897F89888D998D20E03A
:1023C00030E040E85FE30E94250488232CF481E09C
:1023D00090E09D8B8C8B3FC06E897F89888D998D15
:1023E00020E03FEF4FE757E40E94C50318164CF575
:1023F0006A8D7B8D8C8D9D8D20E030E040E251E434
:102400000E941F02DC01CB01BC01CD010E944900EA
:10241000DC01CB019D8B8C8B0FC089E190E09B8B05
:102420008A8B8A899B890197F1F79B8B8A8B8C8990
:102430009D8901979D8B8C8B8C899D89009769F76D
:1024400024C06E897F89888D998D0E944900DC01A6
:10245000CB019D8B8C8B8C899D89998B888B8889EE
:1024600099890197F1F7998B888B0FC06F8D78A1AF
:1024700089A19AA10E944900DC01CB018E8F8E8D2B
:102480008F878F858A95F1F78F878DE891E00E947D
:10249000DE0D80E090E0AAEFB3E48B879C87AD87E8
:1024A000BE876B857C858D859E8520E030E04AE780
:1024B00053E40E941F02DC01CB018F839887A98718
:1024C000BA876F81788589859A8520E030E040E879
:1024D0005FE30E94250488232CF481E090E09E8332
:1024E0008D833FC06F81788589859A8520E03FEF95
:1024F0004FE757E40E94C50318164CF56B857C85A1
:102500008D859E8520E030E040E251E40E941F026C
:10251000DC01CB01BC01CD010E944900DC01CB01F3
:102520009E838D830FC089E190E09C838B838B8198
:102530009C810197F1F79C838B838D819E8101970C
:102540009E838D838D819E81009769F714C06F8172
:10255000788589859A850E944900DC01CB019E839C
:102560008D838D819E819A83898389819A81019748
:10257000F1F79A8389830E942E0F80938C018091BA
:102580008C01813441F4A5E3B0E0E5E3F0E0808123
:1025900082608C939CCD80918C01823409F097CD20
:1025A000A5E3B0E0E5E3F0E080818D7F8C938FCDF3
:1025B0001F920F920FB60F9211248F93EF93FF93F8
:1025C000DF93CF93CDB7DEB7ECE2F0E0808180936C
:1025D0008C01CF91DF91FF91EF918F910F900FBE02
:1025E0000F901F901895A1E21A2EAA1BBB1BFD018C
:1025F0000DC0AA1FBB1FEE1FFF1FA217B307E407E2
:10260000F50720F0A21BB30BE40BF50B661F771F39
:10261000881F991F1A9469F7609570958095909519
:102620009B01AC01BD01CF0108952F923F924F92C3
:102630005F926F927F928F929F92AF92BF92CF9252
:10264000DF92EF92FF920F931F93CF93DF93CDB75B
:10265000DEB7CA1BDB0B0FB6F894DEBF0FBECDBFD3
:1026600009942A88398848885F846E847D848C84A4
:102670009B84AA84B984C884DF80EE80FD800C81AD
:102680001B81AA81B981CE0FD11D0FB6F894DEBF90
:102690000FBECDBFED010895FB019F01E8944230CC
:1026A000C4F04532B4F44A3029F497FB1EF49095F7
:1026B00081959F4F642F77270E941E16805D8A3375
:1026C0000CF0895D8193CB010097A1F716F45DE2D0
:1026D00051931082C9010C948415AEE0B0E0E3E799
:1026E000F3E10C9423130D891E8986E08C831A83F1
:1026F00009838FEF9FE79E838D839E01275E3F4F67
:10270000CE0101966F89788DA9010E9491132F81C6
:102710003885020F131FF80110822E96E4E00C9406
:102720003F13ABE0B0E0E7E9F3E10C9415133C0193
:102730002B015A01FC0117821682838181FD03C09F
:102740006FEF7FEFC6C19AE0892E1E010894211C0D
:10275000311CF3012381F20123FD859123FF819137
:102760002F01882309F4B2C1853239F423FD859104
:1027700023FF81912F01853229F490E0B3010E945B
:102780009415E7CF982FFF24EE249924FFE1FF153D
:10279000D0F09B3269F09C3228F4903259F0933299
:1027A00091F40EC09D3249F0903369F441E024C0A9
:1027B00052E0F52A84E0F82A28C098E0F92A25C0DA
:1027C000E0E1FE2A22C0F7FC29C0892F80538A301D
:1027D00070F4F6FE05C0989C902C1124980E15C03C
:1027E000E89CE02C1124E80EF0E2FF2A0EC09E3295
:1027F00029F4F6FC6BC140E4F42A07C09C3619F4B6
:1028000050E8F52A02C0983649F4F20123FD95916B
:1028100023FF91912F01992309F0B8CF892F855477
:10282000833018F08052833038F444E050E0A40E36
:10283000B51E5FE359830FC0933631F0933779F0BB
:10284000933509F056C020C0F5018081898342E0AC
:1028500050E0A40EB51E610101E010E012C0F501C8
:10286000C080D180F6FC03C06FEF7FEF02C0692DFE
:1028700070E042E050E0A40EB51EC6010E9479153A
:102880008C015FE7F52214C0F501C080D180F6FC11
:1028900003C06FEF7FEF02C0692D70E042E050E0AF
:1028A000A40EB51EC6010E946E158C0150E8F52AD3
:1028B000F3FE07C01AC080E290E0B3010E949415B5
:1028C000EA948E2D90E008171907A8F30EC0F601C0
:1028D000F7FC8591F7FE81916F0190E0B3010E94B2
:1028E0009415E110EA94015010400115110579F793
:1028F000EAC0943611F0993669F5F7FE08C0F50183
:10290000208131814281538184E090E00AC0F50149
:10291000808191819C01442737FD4095542F82E0AE
:1029200090E0A80EB91E9FE6F92257FF09C0509506
:102930004095309521953F4F4F4F5F4FE0E8FE2A7D
:10294000CA01B901A1012AE030E00E94C015D82EC9
:10295000D21840C0953729F41F2D1F7E2AE030E0A1
:102960001DC01F2D197F9F3661F0903720F49835D8
:1029700009F0ACC00FC0903739F0983709F0A6C005
:1029800004C028E030E00AC0106114FD146020E1AA
:1029900030E004C014FD166020E132E017FF08C0EB
:1029A000F501608171818281938144E050E008C02B
:1029B000F50180819181BC0180E090E042E050E02F
:1029C000A40EB51EA1010E94C015D82ED2188FE703
:1029D000F82EF122F6FE0BC05EEFF522D91438F482
:1029E000F4FE07C0F2FC05C08FEEF82202C01D2DD8
:1029F00001C0192DF4FE0DC0FE01ED0DF11D808109
:102A0000803319F499EEF92208C01F5FF2FE05C069
:102A100003C08F2D867809F01F5F0F2DF3FC14C0C3
:102A2000F0FE0FC01E1510F09D2C0BC09D2C9E0CAF
:102A3000911A1E2D06C080E290E0B3010E94941509
:102A40001F5F1E15C0F304C01E1510F4E11A01C06B
:102A5000EE2404FF0FC080E390E0B3010E949415C0
:102A600002FF1DC001FD03C088E790E00EC088E5AD
:102A700090E00BC0802F867891F001FF02C08BE2BE
:102A800001C080E2F7FC8DE290E0B3010E94941552
:102A900006C080E390E0B3010E9494159A94D91483
:102AA000C0F3DA94F101ED0DF11D808190E0B301E6
:102AB0000E949415DD20A9F706C080E290E0B301E2
:102AC0000E949415EA94EE20C1F743CEF30166818B
:102AD0007781CB012B96E2E10C943113FC01059038
:102AE000615070400110D8F7809590958E0F9F1F10
:102AF0000895FC016150704001900110D8F7809555
:102B000090958E0F9F1F0895DC01FC01672F719136
:102B10007723E1F7329704C07C916D9370836291C3
:102B2000AE17BF07C8F308950F931F93CF93DF939A
:102B30008C01EB018B8181FF1BC082FF0DC02E81B8
:102B40003F818C819D812817390764F4E881F981E0
:102B50000193F983E88306C0E885F985802F0995FC
:102B6000892B31F48E819F8101969F838E8302C0D1
:102B70000FEF1FEFC801DF91CF911F910F910895C3
:102B8000FA01AA27283051F1203181F1E8946F939E
:102B90006E7F6E5F7F4F8F4F9F4FAF4FB1E03ED044
:102BA000B4E03CD0670F781F891F9A1FA11D680FE2
:102BB000791F8A1F911DA11D6A0F711D811D911D15
:102BC000A11D20D009F468943F912AE0269F11248A
:102BD0003019305D3193DEF6CF010895462F4770EE
:102BE000405D4193B3E00FD0C9F7F6CF462F4F7049
:102BF000405D4A3318F0495D31FD4052419302D0A7
:102C0000A9F7EACFB4E0A69597958795779567954C
:102C1000BA95C9F700976105710508959B01AC014C
:102C20000A2E06945795479537952795BA95C9F773
:102C3000620F731F841F951FA01D0895AA1BBB1B45
:102C400051E107C0AA1FBB1FA617B70710F0A61BAC
:102C5000B70B881F991F5A95A9F780959095BC01CD
:082C6000CD010895F894FFCFA7
:102C68004241444157590050756D62206973204FA5
:102C78004E0054656D703A20257500000000000074
:102C88000000000001020203030303040404040417
:102C980004040405050505050505050505050505DF
:102CA80005050506060606060606060606060606BF
:102CB80006060606060606060606060606060606AC
:102CC800060606070707070707070707070707078F
:102CD800070707070707070707070707070707077C
:102CE800070707070707070707070707070707076C
:102CF800070707070707070707070707070707075C
:102D0800070707080808080808080808080808083E
:102D1800080808080808080808080808080808082B
:102D2800080808080808080808080808080808081B
:102D3800080808080808080808080808080808080B
:102D480008080808080808080808080808080808FB
:102D580008080808080808080808080808080808EB
:102D680008080808080808080808080808080808DB
:102D780008080808080808080808080808080808CB
:042D8800080808002F
:00000001FF
